:020000040000fa
:080000000001040000000000f3
:020000040000fa
:04000800c40200002e
:020000040000fa
:04000c00c40200002a
:020000040000fa
:04001000c402000026
:020000040000fa
:04001400c402000022
:020000040000fa
:04001800c40200001e
:020000040000fa
:04001c00c40200001a
:020000040000fa
:04002000c402000016
:020000040000fa
:04002400c402000012
:020000040000fa
:04002800c40200000e
:020000040000fa
:04002c00c40200000a
:020000040000fa
:04003000c402000006
:020000040000fa
:04003400c8010000ff
:020000040000fa
:04003800c4020000fe
:020000040000fa
:04003c00c4020000fa
:020000040000fa
:04004000e4010000d7
:020000040000fa
:0400440000020000b6
:020000040000fa
:04004800c4020000ee
:020000040000fa
:04004c00640200004a
:020000040000fa
:04005000c4020000e6
:020000040000fa
:040054004202000064
:020000040000fa
:04005800c4020000de
:020000040000fa
:04005c00c4020000da
:020000040000fa
:04006000c4020000d6
:020000040000fa
:04006400c4020000d2
:020000040000fa
:04006800c4020000ce
:020000040000fa
:04006c00c4020000ca
:020000040000fa
:04007000c4020000c6
:020000040000fa
:04007400c4020000c2
:020000040000fa
:04007800c4020000be
:020000040000fa
:04007c001602000068
:020000040000fa
:040080002c0200004e
:020000040000fa
:04008400c4020000b2
:020000040000fa
:0400880094020000de
:020000040000fa
:04008c00c4020000aa
:020000040000fa
:04009000c4020000a6
:020000040000fa
:04009400c4020000a2
:020000040000fa
:04009800c40200009e
:020000040000fa
:04009c00c40200009a
:020000040000fa
:0400a000c402000096
:020000040000fa
:0400a400c402000092
:020000040000fa
:0400a800c40200008e
:020000040000fa
:0400ac00c40200008a
:020000040000fa
:0400b000c402000086
:020000040000fa
:0400b400c402000082
:020000040000fa
:0400b800c40200007e
:020000040000fa
:0400bc00c40200007a
:020000040000fa
:0400c000c402000076
:020000040000fa
:0400c400c402000072
:020000040000fa
:0400c800c40200006e
:020000040000fa
:0400cc00c40200006a
:020000040000fa
:0400d000c402000066
:020000040000fa
:0400d400c402000062
:020000040000fa
:0400d800c40200005e
:020000040000fa
:04010800c40200002d
:020000040000fa
:04010c00c402000029
:020000040000fa
:04011000c402000025
:020000040000fa
:04011400c402000021
:020000040000fa
:04011800c40200001d
:020000040000fa
:04011c00c402000019
:020000040000fa
:04012000c402000015
:020000040000fa
:04012400c402000011
:020000040000fa
:04012800c40200000d
:020000040000fa
:04012c00c402000009
:020000040000fa
:04013000c402000005
:020000040000fa
:04013400c8010000fe
:020000040000fa
:04013800c4020000fd
:020000040000fa
:04013c00c4020000f9
:020000040000fa
:04014000e4010000d6
:020000040000fa
:0401440000020000b5
:020000040000fa
:04014800c4020000ed
:020000040000fa
:04014c006402000049
:020000040000fa
:04015000c4020000e5
:020000040000fa
:040154004202000063
:020000040000fa
:04015800c4020000dd
:020000040000fa
:04015c00c4020000d9
:020000040000fa
:04016000c4020000d5
:020000040000fa
:04016400c4020000d1
:020000040000fa
:04016800c4020000cd
:020000040000fa
:04016c00c4020000c9
:020000040000fa
:04017000c4020000c5
:020000040000fa
:04017400c4020000c1
:020000040000fa
:04017800c4020000bd
:020000040000fa
:04017c001602000067
:020000040000fa
:040180002c0200004d
:020000040000fa
:04018400c4020000b1
:020000040000fa
:0401880094020000dd
:020000040000fa
:04018c00c4020000a9
:020000040000fa
:04019000c4020000a5
:020000040000fa
:04019400c4020000a1
:020000040000fa
:04019800c40200009d
:020000040000fa
:04019c00c402000099
:020000040000fa
:0401a000c402000095
:020000040000fa
:0401a400c402000091
:020000040000fa
:0401a800c40200008d
:020000040000fa
:0401ac00c402000089
:020000040000fa
:0401b000c402000085
:020000040000fa
:0401b400c402000081
:020000040000fa
:0401b800c40200007d
:020000040000fa
:0401bc00c402000079
:020000040000fa
:0401c000c402000075
:020000040000fa
:0401c400c402000071
:020000040000fa
:0401c800c40200006d
:020000040000fa
:0401cc00c402000069
:020000040000fa
:0401d000c402000065
:020000040000fa
:0401d400c402000061
:020000040000fa
:0401d800c40200005d
:020000040000fa
:10020000cf8020000eff20000e01880000000000bb
:10021000000020000000e000020032000001200089
:100220002002880014000700d90007000000e00049
:1002300003003a00205f2000010020000200370088
:100240000000200001002000810f7000010032003a
:1002500014000700000020000000e000020032004f
:1002600000000200000000009e05020000000000e7
:100270000040da000000fe004440a90040012000d8
:100280000000e0000300320000002000a001880010
:100290004440a800000006008a1f78008b1f7800e9
:1002a0000000060091018800800478000000eb0047
:1002b0001a003700e284440032a0b4009905ba0065
:1002c000e284440032a0b4009906ba00e2844400fb
:1002d00032a0b4000006eb00476fde00fd07b2005d
:1002e000636ce10003003a00ebff07000000eb0045
:1002f0000a003700606ce10004003a00005deb008a
:100300008b05e900fdff3e00040037006168e10055
:10031000010032000086eb000b00070019c7ba008d
:100320001905ba000e04e00003003a000a00e000dc
:10033000e0ff3a0000000600fe07b2009e018800c0
:100340008a047800f5ff3700395dba008b05e900b3
:100350000c003200295dba008b05e900080032006c
:100360000c00e00003003a00e284440032a0b40034
:10037000f5ff370019ddba008b05e900faff3a00f6
:100380008904e800e184440032a0b40000000600c3
:10039000801f78003400f80000002000a0018800d1
:1003a0000000fa000021ef00404080000000e8005b
:1003b000404088008460a9000080fa003400f90001
:1003c0004f00780000400600801f78003400f800dd
:1003d00000002000a00188000000fa000621ef00c4
:1003e000304080000000e8003040880084c0a90050
:1003f0000080fa003400f9004f0078000040060049
:100400003400f800881f780008002000a801880048
:100410004f0478000000fa000a21ef0084e0a900f0
:100420000080fa003400f900004006003400f800b3
:10043000881f780008002000a80188004f04780079
:100440000000fa001421ef0086a0a9000080fa0045
:100450003400f900004006003400f800881f7800de
:1004600008002000a80188004f0478000000fa006e
:100470001821ef0086a0a9000080fa003400f900de
:1004800000400600801f78003400f80000002000c3
:10049000a00188000000fa000014800000408800dd
:1004a0001014800010408800201480002040880034
:1004b000a1e2a9008560a9000080fa003400f900db
:1004c0004f007800004006003600f800809fbe0014
:1004d000829fbe00849fbe00869fbe003400f8004d
:1004e00000002000a00188000000fa008520a9007b
:1004f00090108000004078000ae8b7000ac8bf00ea
:100500000080fb003a0007000080fa003400f90088
:100510004f03be004f02be004f01be004f00be00a1
:100520003600f900004006003600f800809fbe004b
:10053000829fbe00849fbe00869fbe003400f800ec
:1005400000002000a00188000000fa008700a90038
:10055000e0108000004078000be8b7000bc8bf0037
:100560000080fb009b0007000080fa003400f900c7
:100570004f03be004f02be004f01be004f00be0041
:100580003600f900004006000040da000000fe00de
:040590000000050062
:020000040000fa
:10059400507200006f7300006c6100002070000056
:1005a400617500007a610000206f00006420000083
:0805b400326d0000730000002d
:020000040000fa
:1005bc000000fa0000042000a01088000d42a800e2
:1005cc008d20a80071108000c0ff2f0000806000fb
:1005dc00701088000de2a8000f42a8000080fa00fd
:1005ec00000006000200fa00000f78000000000076
:1005fc007110800000102000008060000000e000fe
:10060c00fbff32006010800066006000e60f5000b7
:10061c0003003a009e007800811088000300370028
:10062c00f00f20001e006000801088000080fa008f
:10063c00000006000000fa00881f78000004780013
:10064c000e003700184078000000fb00e5ff0700a3
:10065c0018407800ed4f500002003a00a000200036
:10066c00e0ff070018407800ea4f500002003a0003
:10067c00d0002000dbff07000804e80018407800d9
:10068c000004e000efff3a004f0478000080fa000d
:10069c00000006000400fa008e80e8008008780054
:1006ac000e80e80010007800c300de00500c220021
:1006bc000008b8004408de00004f78001e80fb00e4
:1006cc000003b000c7ff07009e80fb0080c12f0015
:1006dc000088b900000078008e80e8009100780056
:1006ec00808040000e80e800010878000e80e80051
:1006fc0010007800c200de00b04721000008b800ee
:10070c000100d100004f78001e80fb000003b000f8
:10071c00b4ff07009e80fb00c0f92f000088b900d1
:10072c00000078008e80e800910078008080400006
:10073c000e80e800010878000e80e8009000780038
:10074c00d0cc2c000008b8004308de00004f780025
:10075c001e80fb000003b000a2ff07009e80fb0080
:10076c0060ff2f000088b900000078008e80e80040
:10077c0091007800808040000e80e800010878002d
:10078c000e80e800100078000003b00095ff070011
:10079c000080fa00000006000000fa0000042000af
:1007ac00f01088008f00a800c1108000c0ff2f003f
:1007bc0000806000c010880017e2a8001942a80051
:1007cc000080fa00000006000200fa00000f78001a
:1007dc0000000000c11080000010200000806000ac
:1007ec000000e000fbff3200b010800066006000eb
:1007fc00e60f500003003a009e007800d1108800ec
:10080c0003003700f00f20001e006000d01088009d
:10081c000080fa00000006000000fa00881f780033
:10082c00000478000e003700184078000000fb0030
:10083c00e5ff070018407800ed4f500002003a0029
:10084c00a0002000e0ff070018407800ea4f50009d
:10085c0002003a00d0002000dbff07000804e8008b
:10086c00184078000004e000efff3a004f047800d5
:10087c000080fa00000006000400fa008e80e800f8
:10088c00800878000e80e80010007800c300de00bd
:10089c00500c22000008b8004408de00004f78001d
:1008ac001e80fb000003b000c7ff07009e80fb000a
:1008bc0080c12f000088b900000078008e80e8000d
:1008cc0091007800808040000e80e80001087800dc
:1008dc000e80e80010007800c200de00b047210056
:1008ec000008b8000100d100004f78001e80fb000a
:1008fc000003b000b4ff07009e80fb00c0f92f007e
:10090c000088b900000078008e80e8009100780023
:10091c00808040000e80e800010878000e80e8001e
:10092c0090007800d0cc2c000008b8004308de0002
:10093c00004f78001e80fb000003b000a2ff0700f0
:10094c009e80fb0060ff2f000088b900000078003b
:10095c008e80e80091007800808040000e80e800d6
:10096c00010878000e80e800100078000003b00049
:10097c0095ff07000080fa00000006000000fa0056
:10098c00a822a900c622a800a922a900c722a80053
:10099c00a982a900c782a8000080fa000000060006
:1009ac000000fa00a1a2a90001158000f0cf2f00d1
:1009bc00008060000015880001158000000e2000ea
:1009cc000100700000158800a022a80011158000fd
:1009dc0000002e000100700010158800a342a80032
:1009ec001115800030fc2f00008060000030a0004a
:1009fc0010158800a222a900a202a90021158000ce
:100a0c0000f021000100700020158800a4e2a8006d
:100a1c002115800000fc2f0000806000f001b30065
:100a2c0020158800a782a900a682a9003115800094
:100a3c0000ff2f0000806000301588003115800009
:100a4c00f00f2f000080600030158800202021005e
:100a5c0050158800a042a8008560a8008d60a800f1
:100a6c000080fa00000006000000fa000021ef00f0
:100a7c0000712200100888000421a9008460a900dc
:100a8c008c60a80005e1a9000080fa0000000600b7
:100a9c000000fa000621ef00a0002000600888008a
:100aac001021a90084c0a9008cc0a80011e1a900e4
:100abc000080fa00000006000000fa000a21ef0096
:100acc0080382100700888001221a90084e0a90058
:100adc008ce0a80013e1a9000080fa0000000600d9
:100aec000000fa001421ef0000352c00d00888001b
:100afc001e21a90086a0a9008ea0a8001fe1a900b4
:100b0c000080fa00000006000000fa001821ef0037
:100b1c0000352c00e00888002021a90086c0a9001f
:100b2c008ec0a80021e1a9000080fa000000060098
:100b3c000400fa00000f78000e80e800010878002d
:100b4c008eff070096ff0700c7ff0700d0ff0700c6
:100b5c00d9ff0700e2ff0700ebff070094fe070038
:100b6c000dff0700007d200005000700a02c2800c9
:100b7c0029ff0700a000200013ff0700f9ff370032
:100b8c000200fa00000f78000828ef0005e1a80029
:100b9c0000000000404080009e0f5000fdff35001b
:100bac0005e1a9000080fa00000006000200fa002e
:100bbc00000f78000628ef0011e1a80000000000eb
:100bcc00304080009e0f5000fdff350011e1a90060
:080bdc000080fa000000060091
:020000040000fa
:100be400000800000c0000000000000000000000ed
:020000040000fa
:0200000401f009
:040000000587000070
:020000040000fa
:0200000401f009
:040004003f000000b9
:020000040000fa
:0200000401f009
:04001400ffffff00eb
:00000001FF
