:020000040000fa
:080000000001040000000000f3
:020000040000fa
:10000800fc050000fc050000fc050000fc050000e4
:10001800fc050000fc050000fc050000fc050000d4
:10002800fc050000fc050000fc0500009401000030
:10003800fc050000fc050000aa010000c00100004a
:10004800fc0500001a020000fc0500000802000080
:10005800fc050000fc050000fc050000fc05000094
:10006800fc050000fc050000fc050000fc05000084
:10007800fc050000d0010000ec010000fc050000b8
:1000880032020000fc050000fc050000fc05000031
:10009800fc050000fc050000fc050000fc05000054
:1000a800fc050000fc050000fc050000fc05000044
:1000b800fc050000fc050000fc050000fc05000034
:1000c800fc050000fc050000fc050000fc05000024
:1000d800fc050000fc050000fc050000fc05000014
:1000e800fc050000fc050000fc050000fc05000004
:0800f800fc050000fc050000fe
:020000040000fa
:10010800fc050000fc050000fc050000fc050000e3
:10011800fc050000fc050000fc050000fc050000d3
:10012800fc050000fc050000fc050000940100002f
:10013800fc050000fc050000aa010000c001000049
:10014800fc0500001a020000fc050000080200007f
:10015800fc050000fc050000fc050000fc05000093
:10016800fc050000fc050000fc050000fc05000083
:10017800fc050000d0010000ec010000fc050000b7
:1001880032020000fc050000fc050000fc05000030
:10019800fc050000fc050000fc050000fc05000053
:1001a800fc050000fc050000fc050000fc05000043
:1001b800fc050000fc050000fc050000fc05000033
:1001c800fc050000fc050000fc050000fc05000023
:1001d800fc050000fc050000fc050000fc05000013
:1001e800fc050000fc050000fc050000fc05000003
:0801f800fc050000fc050000fd
:020000040000fa
:10020000ef8120000eff20000e018800000000009a
:1002100000012000200288000c00070020f02000d0
:100220000100200011000700000020000000e00095
:1002300002003200000002000000000094020200f0
:10024000000000000040da000000fe004440a90069
:10025000600520000000e0000300320000002000e4
:10026000a00188004440a800000006009101880019
:10027000800078000000eb0015003700e2804000ad
:1002800032a0b4009101ba00e280400032a0b40074
:100290009102ba00e280400032a0b4000002eb00fc
:1002a000472bde00f507b200602ce10004003a00a5
:1002b0000059eb008301e900fdff3e000400370018
:1002c0006128e100010032000082eb000400070019
:1002d0001101ba000200e000e8ff3a000000060049
:1002e0003159ba008301e9000c0032002159ba00eb
:1002f0008301e900080032000400e00003003a0036
:10030000e280400032a0b400f5ff370011d9ba00f6
:100310008301e900faff3a008100e800e180400033
:1003200032a0b40000000600841f78000000fa002c
:100330000002eb0004088800244080000402e8006a
:10034000244088008460a9000080fa004f027800f1
:1003500000400600841f78000000fa000002eb0055
:1003600034088800144080000402e800144088002b
:1003700084c0a9000080fa004f0278000040060007
:10038000841f78000000fa000002eb005408880087
:1003900084e0a9000080fa004f02780000400600c7
:1003a000801f7800841f78000000fa000002eb0034
:1003b000a4088800d502a90014c0b3000440780046
:1003c0001ce8b70086a0a9000080fa004f02780060
:1003d0004f00780000400600801f7800841f7800de
:1003e0000000fa000002eb00c4088800d522a90032
:1003f00014c0b300044078001de8b70086c0a9000f
:100400000080fa004f0278004f007800004006009c
:10041000841f78000000fa00041480000440880063
:10042000a1e2a9008560a9000080fa004f027800cf
:1004300000400600801f7800841f78000000fa004a
:100440008520a900941080000442780004407800c0
:1004500006e8b7000080fa004f0278004f007800ed
:1004600000400600801f7800849fbe00861f780031
:100470000000fa008700a900e41080000442780020
:100480000440780007e8b700748020001442780028
:10049000e04f52001f003200e48020001442780038
:1004a0000483fb00748020001442780085802000c3
:1004b00085024300844a78000042eb000440780043
:1004c00007e8b700e480200014427800e44f5200af
:1004d0000d003e00e4802000144278000442e80051
:1004e000044078000ee8b700e48020001442780051
:1004f0008482fb0084802000848242000042eb0062
:10050000844a7800030037000042eb000440780082
:100510000ee8b7000080fa004f0378004f02be00db
:100520004f007800004006000400fa00881f7800a1
:10053000000f780011079800840507008805070060
:10054000c0050700ca050700d4050700e20507003b
:10055000ec050700a20307001c04070021050700a3
:100560001f060700f2050700b4042000844088003d
:10057000844080000400780034050700e404200073
:100580009440880094408000040078004f050700e4
:10059000c702a900a902a800cb02a800620020009f
:1005a0008000eb00808020005b0307000042eb002e
:1005b000044078000ee8b700a09928002304070043
:1005c000d00020000d0407000000000085802000fe
:1005d0009542780034c5b30084cf5200fbff3a0047
:1005e000958020009542780044c5b30084cf520026
:1005f000f6ff3a00a58020009542780014c4b300ad
:1006000084cf5200f1ff3a00b58020009542780077
:1006100024c5b30084cf5200ecff3a00c58020000f
:100620009542780044c5b30084cf5200e7ff3a00fa
:10063000d480200014427800e04f5200e3ff3a00db
:10064000709a280001040700d0002000eb03070087
:10065000541680004822de006142620004c2ea00b3
:10066000614262000482fb00610262004822dd00f8
:1006700056168000f5ef2f00850263000482720099
:1006800054168800ba0507009a000700054080004c
:1006900004322000848f52002f003600ad05070081
:1006a000001920007b00070099000700a44080008b
:1006b000b540800018c0b3000200200003172400da
:1006c0000400be00f001070000027800e00f5200b5
:1006d00001003c000044eb00e04f540007003200f2
:1006e000b1050700405120006a0007009905070086
:1006f0000019200067000700d5ff3700c20007007f
:10070000c4408000d540800018c0b3000200200023
:10071000031824000400be00db010700000278007b
:10072000e00f520001003c000044eb00e04f540099
:1007300007003200a30507004051200055000700c4
:10074000840507000019200052000700c0ff370091
:1007500080050700beff37006d0007001800370056
:100760007c050700001920004a00070095050700d6
:10077000000520004700070065000700a440800036
:10078000b540800018c0b300020020000317240009
:100790000400be00bc01070000027800e00f520018
:1007a00001003d000044eb00e04f54000400320023
:1007b0006805070000192000360007006c050700d7
:1007c000a4408000b540800018c0b30002002000a3
:1007d000031724000400be00a901070000027800ee
:1007e000e00f5200010035000044eb00e04f5400e0
:1007f000dbff3a00840007001800370055050700aa
:1008000000192000230007006705070000052000ed
:10081000200007007c000700c4408000d540800015
:1008200018c0b30002002000031824000400be001a
:100830009501070000027800e00f520001003d0022
:100840000044eb00e04f5400040032004105070073
:10085000001920000f00070045050700c440800074
:10086000d540800018c0b300020020000318240007
:100870000400be008201070000027800e00f520071
:10088000010035000044eb00e04f5400dbff3a006c
:100890006fff37000200fa00000f78000002eb0043
:1008a0002440880005e1a8000000000024408000ea
:1008b0009e0f5200fdff350005e1a9000080fa00ff
:1008c000000006000200fa00000f78000002eb00b2
:1008d0001440880011e1a8000000000014408000ce
:1008e0009e0f5200fdff350011e1a9000080fa00c3
:1008f000000006000000fa00a1e2a800a00020000d
:10090000e4ff0700a1e2a9000080fa000000060051
:100910000200fa00d642a80030002000e9ff0700dc
:10092000d642a90030002000e6ff070000000000ca
:10093000a51680000410200004826200e00f52001f
:10094000fbff32000002eb00a408880086a0a9008b
:100950001fe1a80000000000a51680000410200080
:1009600004826200e00f5200fbff3a001fe1a90081
:10097000c481200014427800e14f520006003a0082
:10098000841a2600040f78000042eb00044078002f
:100990001ce8b70002003700a4088000040f7800ac
:1009a0000002eb00a40888001e0278000500200069
:1009b0000400be00750107000002be00d2cc2c006e
:1009c000c3dc23000400be00c50107000002be0016
:1009d00002002000030024000400be00e60007001f
:1009e0000002be0082e22700c3d023000400be0044
:1009f000bb0107000002be00a4408800b54088008b
:100a00000080fa00000006000200fa00d662a8008a
:100a100030002000abff0700d662a90030002000a4
:100a2000a8ff070000000000a51680000420200099
:100a300004826200e00f5200fbff32000002eb0074
:100a4000c408880086c0a90021e1a80000000000b9
:100a5000a51680000420200004826200e00f5200ee
:100a6000fbff3a0021e1a900d48120001442780064
:100a7000e14f520006003a00841a2600040f780065
:100a80000042eb00044078001de8b7000200370088
:100a9000c4088000040f78000002eb00c40888003e
:100aa0001e027800050020000400be003701070088
:100ab0000002be00d2cc2c00c3dc23000400be0028
:100ac000870107000002be0002002000030024008e
:100ad0000400be00a80007000002be0082e227005a
:100ae000c3d023000400be007d0107000002be0049
:100af000c4408800d54088000080fa00000006004d
:100b00000000fa006580200095427800b4c2b3006e
:100b100084cf52001a003a0085408000a4052000ce
:100b2000848f520006003c00844080006a0242002c
:100b3000844088008440800004007800c3030700dc
:100b400095408000a4052000848f520006003c00e0
:100b5000944080006a0242009440880094408000e3
:100b600004007800d90307000042eb00044078003d
:100b700006e8b700b09b28003a0207001c003700c7
:100b80006580200095427800d4c2b30084cf520023
:100b900017003a0084408000e90f5200060034003c
:100ba000844080006a0252008440880084408000b3
:100bb00004007800a503070094408000e90f52006c
:100bc00006003400944080006a025200944088007d
:100bd0009440800004007800bc0307000042eb0052
:100be0000440780006e8b700509d28001d02070069
:100bf0000080fa00000006000040da000000fe005d
:100c000003f0a200889fbe008a9fbe008c1f780060
:100c10001b010700220133006450e1004f00320045
:100c20006420e1005200320003826c0007003b00a8
:100c30000905d0000306d000820f54000c065d00a9
:100c400002003900020032008901780003067800b2
:100c50008582550004003d000003fd008103fd0076
:100c60008502ea008b854200840f720002003b007f
:100c700060001000e08018006011b8000005eb0073
:100c80007a28e1000a00390006007800c75ddd001f
:100c9000f707b200878075002d0037008281710050
:100ca0000a017800610560008180d1000080d300d6
:100cb0008502e900f9ff3b000604400087844800f4
:100cc00002003b0060041400e0841c000988a300bb
:100cd000070032008a817100828171006101640025
:100ce0008904d1000884d3008b05e8001700370081
:100cf0000978a30013003a000b00e0001300340051
:100d00008b05e9000804440089844c000a447400ff
:100d10000978a3000d003a000b00e0000700340042
:100d20008b05e9000804440089844c0001003a0066
:100d30000b0020000978a300f7ff32000001eb0050
:100d400002003700828171000a01780091000700db
:100d50000cf0a70001f0a000da0037006420e100e9
:100d600002003a00838f6c00da0033000801be00f5
:100d70000200be00d3003700889fbe008a9fbe00dd
:100d80008c1f7800be000700c500330003866c008e
:100d90006450e1002e0032006420e1003300320094
:100da0006150e1002f0032006120e100310032008b
:100db00085855500eb07b0000900200008042000dd
:100dc000050037000804440089844c000a00310003
:100dd0000603430087834b000001530081815b00c1
:100de000f8ff33000203be000800a000080444001e
:100df00089844c00f6ff3900c639dd008301730099
:100e000001003200130020008904d1000884d300bf
:100e10000998a300050032000800a7000300a00005
:100e20008904d1000884d3008b05e8008904d1002f
:100e30000884d3000001eb000281d20055000700b6
:100e400001f0a1000cf0a70001f0a0009d00370008
:100e50006420e1009f0032000801be000200be00d5
:100e6000f7ff37006120e1009a0032006000b8000f
:100e7000f3ff37000000200001f82700f0ff3700e3
:100e800014002000ca003700f4ff2f00c80037000c
:100e90000001be00650007000470a70003f0a10078
:100ea0006509b100160032000d0035006828e10028
:100eb00006003500f0ff2f00f1ff27000300e000df
:100ec00013003b0001002800000005000000400066
:100ed000818048008502e900fcff3a0008003700e5
:100ee000f88f420002003c008000eb00000005008b
:100ef0008100d1000080d3008502e800fcff3a00a9
:100f00000300e00002003b0060001000e0801800d9
:100f1000000006000001be00440007000470a700a6
:100f200003f0a10003f8a30013003a006509b10023
:100f300010003200090035006928e1000200350088
:100f400001002800000005000000400081804800ea
:100f50008502e900fcff3a0000000600f88f42001d
:100f6000050035008100d1000080d3008502e80033
:100f7000fcff3a00000006008000eb0000000500c6
:100f80004f89de0082017800a40037006011b800ac
:100f9000b200370081002000618055000b003d0049
:100fa0000b00200061fe2f000100e1001d00340055
:100fb00082817100610164008904d1000884d3003a
:100fc0000000e800faff3a007100200061006400b0
:100fd0000300700002006000090032006104440058
:100fe000e0844c000988a500050032008b05e8006c
:100ff0006808e10002003a008904d1000884d300a7
:10100000f20f20000258e10005003d00c75ddd0041
:10101000f907b2008980750008007800000006001a
:101020000bf827008b00780000000500c70ade00df
:10103000f107b200f50fb20008003200e1cf420024
:10104000020032000170a00024000500810f700032
:10105000010032000408050044000500810f700003
:1010600002003a00140005008502e900000040007b
:1010700081c04800fcff3b000170a0002400050077
:101080000004be00e9ff07000003be000405be0027
:101090000200be00e5ff0700844f75000000060057
:1010a0000200be006450e100050036006420e1004b
:1010b000020036000968a30001003a000800be00e3
:1010c0000160a0004f0678004f05be004f04be002f
:1010d00000000600f0ff2f00f1ff2700f9ff3700a6
:1010e000889fbe008a9fbe008c1f7800e4ff070027
:1010f000ebff330003866c006450e10024003200f3
:101100006420e100270032006150e100220032003b
:101110006120e100210032008b854200eb07b10025
:101120000134b800003ab8000804420089844a003b
:10113000013ab8000030b8008880400009014a0038
:101140000400330000004000818048000201490093
:101150008b05e900c909dd00830170000100320040
:1011600013002000c814de004814dd004709de002b
:101170001200b200c808de000884700085ff070076
:1011800001f0a1000cf0a70001f0a000cdff370096
:101190006120e100cfff32000801be000200be0066
:1011a000f7ff37006150e100fcff3a00c9ff37004c
:1011b000889fbe008a9fbe00841f7800b0ff070092
:1011c0004f00780011003300f0ff2f00838f6c0078
:1011d00006003b00040565000a00a7000800370070
:1011e00009f0a6001000200008003700820f54000c
:1011f000838f5c00030039001000200001003e00d6
:101200000000200009f0a7000000ea004f05be0022
:101210004f04be000000e00000000600881f7800b8
:10122000030478000300e00007003d0060001000a8
:10123000e080180060011900e081190002003b0005
:1012400001f02d00030037000400070008f0a7009c
:1012500001f0a0004f04780000000600889fbe0047
:101260008a9fbe0000827000040271000482710037
:10127000260032000004be000200be006011b8006b
:101280006b092000950220000182cf000a0039007e
:101290000541b1000082cf00070039000541b100cf
:1012a0000982cf00040039000541b1000882cf0057
:1012b000010039000541b100054252001200320020
:1012c0000a003b0082817100610164008100d1004d
:1012d0000080d3008984d3000884d3008b05e80004
:1012e0000442e800f7ff3a00070037000804440012
:1012f00089844c0000004800818048008b05e9008b
:101300000442e900f9ff3a0022ff07004f05be0042
:101310004f04be0000000600000278000200370003
:10132000015a78000201e900e00f5100fcff3a0089
:0413300000000600b3
:020000040000fa
:1013340057720000697400006520000053540000d7
:1013440041520000542e0000005400006865000063
:101354002063000061720000206900007320000017
:10136400737400006172000074650000642e000054
:1013740000440000757400007920000063790000c7
:10138400636c00006520000077610000732000009a
:10139400696e0000637200006561000073650000ff
:1013a400642e0000004400007574000079200000e1
:1013b40063790000636c0000652000007761000021
:1013c4007320000064650000637200006561000022
:0c13d40073650000642e000000000000a3
:020000040000fa
:1013e0000000fa0004042000a41088000d42a800a8
:1013f0008d20a80075108000c4ff2f0004826200b9
:10140000741088000de2a8000f42a8000080fa00c6
:10141000000006000200fa00000f78000000000043
:10142000751080000410200004826200e00f52005a
:10143000fbff32006410800066026200e60f52007b
:1014400003003a001e027800841088000300370071
:10145000f40f20001e026200841088000080fa0051
:10146000000006000000fa00881f780000047800e1
:101470000f003700184278000402fb0004007800d7
:10148000e4ff070018427800ea4f520002003a00d9
:10149000d0002000dfff070018427800ed4f520017
:1014a00002003a00a0002000daff07000804e8006c
:1014b00018427800e04f5200eeff3a004f047800e7
:1014c0000080fa00000006000400fa0010079800ef
:1014d0009e029000843e2000110009008482d80002
:1014e00000027800044f78009e4278000582fb00dd
:1014f0000403b00004007800c6ff07001e40780017
:101500008082fb0084c12f0004aab9000402780085
:101510009e02900004824200140798009e029000f0
:1015200044062000110009008482d80000027800df
:10153000044f78009e4278000582fb000403b0004f
:1015400004007800b3ff07001e4078008082fb0093
:10155000c4f92f0004aab900040278009e0290008a
:1015600004824200140798009e029000a40020000c
:10157000110009008482d80000027800044f78002e
:101580009e4278000582fb000403b000040078004e
:10159000a0ff07001e4078008082fb0064ff2f0040
:1015a00004aab900040278009e029000048242005e
:1015b000140798001e0290000403b0000400780095
:1015c00094ff07000080fa00000006000000fa0007
:1015d00004042000f41088008f00a800c5108000cb
:1015e000c4ff2f0004826200c410880017e2a80024
:1015f0001942a8000080fa00000006000200fa006c
:10160000000f780000000000c510800004102000ca
:1016100004826200e00f5200fbff3200b410800031
:1016200066026200e60f520003003a001e027800d4
:10163000d410880003003700f40f20001e0262005f
:10164000d41088000080fa00000006000000fa00b4
:10165000881f7800000478000500370018427800e1
:101660000402fb000804e80004007800e3ff070020
:1016700018427800e04f5200f8ff3a004f0478001b
:101680000080fa00000006000400fa00100798002d
:101690009e029000843e2000110009008482d80040
:1016a00000027800044f78009e4278000582fb001b
:1016b0000403b00004007800d0ff07001e4078004b
:1016c0008082fb0084c12f0004aab90004027800c4
:1016d0009e02900004824200140798009e0290002f
:1016e00044062000110009008482d800000278001e
:1016f000044f78009e4278000582fb000403b0008e
:1017000004007800bdff07001e4078008082fb00c7
:10171000c4f92f0004aab900040278009e029000c8
:1017200004824200140798009e029000a40020004a
:10173000110009008482d80000027800044f78006c
:101740009e4278000582fb000403b000040078008c
:10175000aaff07001e4078008082fb0064ff2f0074
:1017600004aab900040278009e029000048242009c
:10177000140798001e0290000403b00004007800d3
:101780009eff07000080fa00000006000600fa0035
:10179000100798002107980002002000031224007f
:1017a0001e009000ae0090004dfe07000002be003b
:1017b000140798002507980002002400c361240044
:1017c0001e009000ae0090006bfd07000002be00fe
:1017d0000400be00cffd07000002be00044f7800e9
:1017e0009e4278000582fb000403b00004007800ec
:1017f00082ff07001e4278008482fb0004712200f1
:1018000004aab90004027800cfa2de000400be00e2
:10181000dbfd07000002be000401be001e009000b8
:10182000ae009000f6fc07000002be00140798000e
:101830002507980002002000a34724001e00900006
:10184000ae0090004cfd07000002be000400be0088
:10185000b0fd07000002be00044f78009e427800f1
:101860000582fb000403b0000400780063ff07005a
:101870001e4278008482fb00843e200004aab90046
:1018800004027800cfa2de000400be00bcfd070009
:101890000002be000401be001e009000ae009000d9
:1018a000d7fc07000002be00140798002507980027
:1018b00002002000832c24001e009000ae00900047
:1018c0002dfd07000002be000400be0091fd0700d0
:1018d0000002be00044f78009e4278000582fb00a3
:1018e0000403b0000400780044ff07001e427800a3
:1018f0008482fb004406200004aab9000402780098
:10190000cfa2de000400be009dfd07000002be0065
:101910000401be001e009000ae009000b8fc07005d
:101920000002be001407980025079800020020005e
:10193000031224001e009000ae0090000efd070070
:101940000002be000400be0072fd07000002be00df
:10195000044f78009e4278000582fb000403b0002b
:101960000400780025ff0700e002200023ff0700a5
:101970009e4278000582fb006a22b90004027800ca
:10198000cfa2de000400be007dfd07000002be0005
:101990000401be001e009000ae00900098fc0700fd
:1019a0000002be00140798002507980002002000de
:1019b000032424001e009000ae00900091fc07005c
:1019c0000002be000400be0052fd07000002be007f
:1019d000040278000400780008ff07000080fa0085
:1019e000000006000000fa00d202a900d222a900dd
:1019f000240c80000400a1000410a0000420a0001a
:101a0000240c8800540c80000400a1000410a000e5
:101a10000420a000540c88008461a8008a61a800fa
:101a20000002eb00140c88000002eb00440c88005c
:101a3000a40f2000040c8800a40f2000340c8800a0
:101a400013e1a8000080fa00000006000600fa007a
:101a5000200798002e029000e00f52001900350078
:101a6000ae02900044062000848f520015003c0016
:101a70002e029000cfa2de000400be0040fd070051
:101a80000002be0002002800933f24000400be00b4
:101a900093fd07000002be0002002000832c2400fa
:101aa0000400be00b4fc07000002be00048fbe00ac
:101ab0001e00be00f6fc07000002be000402780013
:101ac000040c88000080fa00000006000600fa00fe
:101ad000200798002e029000e00f520019003500f8
:101ae000ae02900044062000848f520015003c0096
:101af0002e029000cfa2de000400be0020fd0700f1
:101b00000002be0002002800933f24000400be0033
:101b100073fd07000002be0002002000832c240099
:101b20000400be0094fc07000002be00048fbe004b
:101b30001e00be00d6fc07000002be0004027800b2
:101b4000340c88000080fa00000006000000fa0053
:101b5000a822a900c622a8000080fa000000060002
:101b60000000fa00a1a2a900041580000480a100d1
:101b70000490a10004158800041580000450a00002
:101b80000460a0000470a00004158800a022a80032
:101b90001415800004d0a00004e0a00004f0a00010
:101ba00014158800a342a800141580000420a10089
:101bb0000430a1000440a1000450a10014158800c5
:101bc000a222a900a202a9002515800004f021008c
:101bd0000482720024158800a4e2a8002515800064
:101be00004fc2f0004826200f401b3002415880075
:101bf000a782a900a682a900341580000400a100d4
:101c00000410a1000420a1000430a10034158800b4
:101c1000341580000480a1000490a10004a0a1005c
:101c200004b0a10034158800240020005415880059
:101c3000a042a8008560a8008d60a8000080fa007e
:101c4000000006000000fa000002eb000408880013
:101c500004712200140888000421a9008460a900ee
:101c60008c60a80005e1a9000080fa0000000600d1
:101c70000000fa000002eb0034088800a4002000f5
:101c8000640888001021a90084c0a9008cc0a800a5
:101c900011e1a9000080fa00000006000000fa002f
:101ca0000002eb0054088800441f200074088800dc
:101cb0001221a900940880000440a1000450a10052
:101cc0009408880084e0a9008ce0a80013e1a90032
:101cd0000080fa00000006000000fa000002eb009d
:101ce000a4088800841a2600d40888001e21a900b0
:101cf00086a0a9008ea0a8001fe1a9000080fa001c
:101d0000000006000000fa000002eb00c408880092
:101d1000841a2600e40888002021a90086c0a900b2
:101d20008ec0a80021e1a9000080fa000000060092
:101d30000000fa00c742a900c762a900de02a9009c
:101d4000de22a900a962a800a982a8000080fa00ea
:101d5000000006000000fa00cb42a900cb62a900f7
:101d6000e222a900e202a9000080fa0000000600b9
:101d70000000fa00cb42a800cb62a900e222a90031
:101d8000e202a8000080fa00000006000000fa004d
:101d9000cb42a900cb62a800e222a800e202a9007f
:101da0000080fa00000006000000fa00cb42a80004
:101db000cb62a900e222a800e202a9000080fa009a
:101dc000000006000000fa00cb42a900cb62a80088
:101dd000e222a900e202a8000080fa00000006004a
:101de0000000fa00d242a900d262a900d302a800e2
:101df000d322a800d642a900d662a9000080fa002a
:041e000000000600d8
:020000040000fa
:101e0400000800001e0000000000000000000000a8
:020000040000fa
:0200000401f009
:04000000e5bf000058
:020000040000fa
:0200000401f009
:04000400ff7f00007a
:00000001FF
