:020000040000fa
:080000000001040000000000f3
:020000040000fa
:040008008e02000064
:020000040000fa
:04000c008e02000060
:020000040000fa
:040010008e0200005c
:020000040000fa
:040014008e02000058
:020000040000fa
:040018008e02000054
:020000040000fa
:04001c008e02000050
:020000040000fa
:040020008e0200004c
:020000040000fa
:040024008e02000048
:020000040000fa
:040028008e02000044
:020000040000fa
:04002c008e02000040
:020000040000fa
:040030008e0200003c
:020000040000fa
:04003400c8010000ff
:020000040000fa
:040038008e02000034
:020000040000fa
:04003c008e02000030
:020000040000fa
:04004000dc010000df
:020000040000fa
:04004400f0010000c7
:020000040000fa
:040048008e02000024
:020000040000fa
:04004c00340200007a
:020000040000fa
:040050008e0200001c
:020000040000fa
:040054002202000084
:020000040000fa
:040058008e02000014
:020000040000fa
:04005c008e02000010
:020000040000fa
:040060008e0200000c
:020000040000fa
:040064008e02000008
:020000040000fa
:040068008e02000004
:020000040000fa
:04006c008e02000000
:020000040000fa
:040070008e020000fc
:020000040000fa
:040074008e020000f8
:020000040000fa
:040078008e020000f4
:020000040000fa
:04007c00fa01000085
:020000040000fa
:040080000e0200006c
:020000040000fa
:040084008e020000e8
:020000040000fa
:04008800460200002c
:020000040000fa
:04008c008e020000e0
:020000040000fa
:040090008e020000dc
:020000040000fa
:040094008e020000d8
:020000040000fa
:040098008e020000d4
:020000040000fa
:04009c008e020000d0
:020000040000fa
:0400a0008e020000cc
:020000040000fa
:0400a4008e020000c8
:020000040000fa
:0400a8008e020000c4
:020000040000fa
:0400ac008e020000c0
:020000040000fa
:0400b0008e020000bc
:020000040000fa
:0400b4008e020000b8
:020000040000fa
:0400b8008e020000b4
:020000040000fa
:0400bc008e020000b0
:020000040000fa
:0400c0008e020000ac
:020000040000fa
:0400c4008e020000a8
:020000040000fa
:0400c8008e020000a4
:020000040000fa
:0400cc008e020000a0
:020000040000fa
:0400d0008e0200009c
:020000040000fa
:0400d4008e02000098
:020000040000fa
:0400d8008e02000094
:020000040000fa
:040108008e02000063
:020000040000fa
:04010c008e0200005f
:020000040000fa
:040110008e0200005b
:020000040000fa
:040114008e02000057
:020000040000fa
:040118008e02000053
:020000040000fa
:04011c008e0200004f
:020000040000fa
:040120008e0200004b
:020000040000fa
:040124008e02000047
:020000040000fa
:040128008e02000043
:020000040000fa
:04012c008e0200003f
:020000040000fa
:040130008e0200003b
:020000040000fa
:04013400c8010000fe
:020000040000fa
:040138008e02000033
:020000040000fa
:04013c008e0200002f
:020000040000fa
:04014000dc010000de
:020000040000fa
:04014400f0010000c6
:020000040000fa
:040148008e02000023
:020000040000fa
:04014c003402000079
:020000040000fa
:040150008e0200001b
:020000040000fa
:040154002202000083
:020000040000fa
:040158008e02000013
:020000040000fa
:04015c008e0200000f
:020000040000fa
:040160008e0200000b
:020000040000fa
:040164008e02000007
:020000040000fa
:040168008e02000003
:020000040000fa
:04016c008e020000ff
:020000040000fa
:040170008e020000fb
:020000040000fa
:040174008e020000f7
:020000040000fa
:040178008e020000f3
:020000040000fa
:04017c00fa01000084
:020000040000fa
:040180000e0200006b
:020000040000fa
:040184008e020000e7
:020000040000fa
:04018800460200002b
:020000040000fa
:04018c008e020000df
:020000040000fa
:040190008e020000db
:020000040000fa
:040194008e020000d7
:020000040000fa
:040198008e020000d3
:020000040000fa
:04019c008e020000cf
:020000040000fa
:0401a0008e020000cb
:020000040000fa
:0401a4008e020000c7
:020000040000fa
:0401a8008e020000c3
:020000040000fa
:0401ac008e020000bf
:020000040000fa
:0401b0008e020000bb
:020000040000fa
:0401b4008e020000b7
:020000040000fa
:0401b8008e020000b3
:020000040000fa
:0401bc008e020000af
:020000040000fa
:0401c0008e020000ab
:020000040000fa
:0401c4008e020000a7
:020000040000fa
:0401c8008e020000a3
:020000040000fa
:0401cc008e0200009f
:020000040000fa
:0401d0008e0200009b
:020000040000fa
:0401d4008e02000097
:020000040000fa
:0401d8008e02000093
:020000040000fa
:100200000f8220000eff20000e0188000000000079
:10021000000020000000e000020032000001200089
:100220002002880014000700be0007000000e00064
:1002300003003a00604a210001002000020037005c
:100240000000200001002000810f7000010032003a
:1002500014000700000020000000e000020032004f
:100260000000020000000000c40c020000000000ba
:100270000040da000000fe004440a900000f20000a
:100280000000e0000300320000002000a001880010
:100290004440a800000006008a1f78008b1f7800e9
:1002a0000000060091018800800478000000eb0047
:1002b0001a003700e284440032a0b4009905ba0065
:1002c000e284440032a0b4009906ba00e2844400fb
:1002d00032a0b4000006eb00476fde00fd07b2005d
:1002e000636ce10003003a00ebff07000000eb0045
:1002f0000a003700606ce10004003a00005deb008a
:100300008b05e900fdff3e00040037006168e10055
:10031000010032000086eb000b00070019c7ba008d
:100320001905ba000e04e00003003a000a00e000dc
:10033000e0ff3a0000000600fe07b2009e018800c0
:100340008a047800f5ff3700395dba008b05e900b3
:100350000c003200295dba008b05e900080032006c
:100360000c00e00003003a00e284440032a0b40034
:10037000f5ff370019ddba008b05e900faff3a00f6
:100380008904e800e184440032a0b40000000600c3
:10039000801f78000000fa000021ef00204080005c
:1003a0000000e800204088008460a9000080fa0076
:1003b0004f00780000400600801f78000000fa001f
:1003c0000621ef00104080000000e8001040880087
:1003d00084c0a9000080fa004f00780000400600a9
:1003e0000000fa000a21ef0084e0a9000080fa0072
:1003f00000400600801f78000000fa001421ef0082
:10040000d502a90010c0b3001ce8b70086a0a9005f
:100410000080fa004f00780000400600801f78003e
:100420000000fa001821ef00d522a90010c0b30087
:100430001de8b70086c0a9000080fa004f007800d0
:1004400000400600801f78000000fa0000148000c1
:1004500000408800a1e2a9008560a9000080fa00a0
:100460004f00780000400600801f78000000fa006e
:100470008520a900901080000040780006e8b700b1
:100480000080fa004f00780000400600809fbe0008
:10049000821f78000000fa008700a900e0108000a9
:1004a0000040780007e8b70007c8bf000004e0007c
:1004b000160032000ec8bf000081fb0071802000d2
:1004c00091407800808020000000410001487800c1
:1004d0000768ef000ec8bf00e44f50000a003e005e
:1004e0000ec8bf000040e8000ee8b7000ec8bf000d
:1004f0008080fb0080802000008040008040eb0076
:1005000001487800010037000e68ef000080fa0013
:100510004f0178004f00be00004006000040da00a6
:100520000000fe000000050014002000ad033700ad
:10053000f4ff2f00ab0337000001be003f000700af
:100540000470a70003f0a1006509b1001600320095
:100550000d0035006828e10006003500f0ff2f008f
:10056000f1ff27000300e00013003b00010028001a
:100570000000050000004000818048008502e9007d
:10058000fcff3a0008003700f88f420002003c00f0
:100590008000eb00000005008100d1000080d30046
:1005a0008502e800fcff3a000300e00002003b0087
:1005b00060001000e0801800000006000001be008e
:1005c0001e0007000470a70003f0a10003f8a300b9
:1005d00013003a006509b10010003200090035002f
:1005e0006928e10002003500010028000000050034
:1005f00000004000818048008502e900fcff3a00cd
:1006000000000600f88f4200050035008100d1008f
:100610000080d3008502e800fcff3a0000000600dd
:100620008000eb00000005004f89de0082017800a9
:10063000870337006011b80095033700c70ade0052
:10064000f107b200f50fb20008003200e1cf42001e
:10065000020032000170a00024000500810f70002c
:10066000010032000408050044000500810f7000fd
:1006700002003a00140005008502e9000000400075
:1006800081c04800fcff3b000170a0002400050071
:1006900007f82700078361000638e10004003a00ec
:1006a000f7072000878361008703710001003a008b
:1006b00003f0a200889fbe008a9fbe008c9fbe00f0
:1006c000470ade000480a100c71ade000580a100f1
:1006d000070028000785600087856100f70f20006c
:1006e0000720e1009e0032000728e1009c00320054
:1006f000010678000400e000b4003200f707200093
:10070000878060000170a0000500e000c00032009a
:10071000f7072000878161000370a00005065200e2
:100720000f003a000b50e1000b0032000308e1001b
:1007300002003a000200e1007e0032000204500094
:1007400083845800040031000001fd008101fd0098
:100750008402fd008a05fd006044b80021003700d6
:100760000520e10005003d000001fd008101fd00c4
:100770008402fd008a05fd00050652007a60e10052
:10078000050035000170a1004722dd008480700063
:100790008a807000630037006044b800ef02660092
:1007a00007ff2f00070666000500e0000600340082
:1007b000f08312008714dd000511de00071bdd0049
:1007c000060171008519de007060e100050035004a
:1007d0000904780082047800030178008001eb00ae
:1007e000700656000b50e10003003a000200400082
:1007f000838048000400370060041400e0841c007b
:1008000002005800838058000188a30006003200cf
:100810008100d1000080d3008984d3000884d300f4
:100820000402e800270037000178a30025003a0001
:100830000100e000030032008186cf006986560087
:100840000a0037008c0020000000e00004003a009d
:1008500009007800880478000004eb007002520060
:100860008086cf000d0646000c06e9007060e100ae
:1008700006003500800078000900780088047800c0
:100880000004eb0070065600700252000c00e000fd
:100890000c0034008c08dd00f00316000703de00b6
:1008a000868070000c00dd00074bde000600700043
:1008b0008c4cdd000743de00868474000c44dd00b0
:1008c0000c0252006120e10020003500610160004f
:1008d0000700280087816400f7ff270087836400f2
:1008e000070374000300e000060032008203730077
:1008f000040032000000e800e08048000188a30006
:100900000e003a00f70f20000720e1004a003d00ea
:100910000170a1004722dd00810072008a80700012
:100920000000be004f06be004f05be004f04be00d3
:10093000000006006000b800faff37008100d10017
:100940000080d3000402e800eeff370004017800c5
:1009500089017400a10107008a807000f1ff37004f
:10096000f7010700070278000001fd008101fd008a
:10097000f301070087027800850372000778a3005f
:10098000040032000001fd008101fd0006020700a5
:10099000e4ff3700850362000768a3000800320007
:1009a0000b50e10003003200f0ff2f00f1ff2700a1
:1009b000dcff37000001fd008101fd00d9ff370099
:1009c0000468a300d7ff3200faff3700f8ff2700c2
:1009d000888360000b003a000000e00009003a0044
:1009e0008303640082837300020032000200be00b1
:1009f000ccff37000b50e100ceff3a000200be00f2
:100a0000c8ff370014002000810064003eff37005b
:100a1000f8ff27008883610004003a000200e0002c
:100a200002003a008c007800beff3700150020005d
:100a30008301640039ff370001f82700000020001f
:100a400081007500b7ff3700889fbe008a9fbe00f7
:100a50008c9fbe001b0020000202be0005866800bd
:100a600006002800060666004709de00f20fb20005
:100a7000820032000243e80080003200c729de0015
:100a8000f30fb2007d0032000343e8007b00320028
:100a9000f107b2000170a000f507b2000570a000d8
:100aa000c708dd004903de00868070004700dd00d6
:100ab000c72add004923de00868272004722dd005e
:100ac00003055100040350008583580003003100e2
:100ad00000004000818048000a05e9008c1f780072
:100ae0008a9fbe0004005000858058000402420026
:100af00085824a0000004000818048000005eb002c
:100b00000004be006033b8000406be000d48e100da
:100b100056003100110009004dccd8000c01b8007e
:100b20000d02b8008481410060824a008283530034
:100b300003045c0084845c0060055d000a00e00042
:100b400025003a00800578000d40e10049003100a1
:100b50008800780007007800110009004d88d8004f
:100b60000c01b8000d02b8008481410060824a0087
:100b70006003110083835b0004045c00e0845c007c
:100b80000900e00021003a004f01be000300e00030
:100b90002b003200e3016000070673008c817100b6
:100ba00001003200640070004200de004e5edd0095
:100bb0000c007000c258de0001e0a00083010700b5
:100bc000cf017800818071004f06be004f05be0046
:100bd0004f04be00000006008c8343000d044c004f
:100be000e0844c0060054d000000e9000a00e000d0
:100bf000d4ff32008c8343000d044c00e0844c0091
:100c000060054d000000e900ceff37000c034300f3
:100c10008d834b0060044c00e0844c000000e90030
:100c20000900e000d8ff32000c0343008d834b0025
:100c300060044c00e0844c000000e900d2ff370063
:100c40004200de004e5edd000c007000c258de0087
:100c500001e0a000cf0178000300e000daff3200dd
:100c600060001000e0801800d7ff3700f0ff2f0071
:100c7000aaff3700f0ff2f00b9ff37000404be00c1
:100c80002f010700870678000004fd008104fd00a5
:100c90002b010700078366000678a30003003200db
:100ca0000960a7000800be002c0037000d78a300e3
:100cb000020032000800be00280037000778a300b9
:100cc00026003a0001f0a10009f0a1000668a30087
:100cd00003003200f1ff2700f0ff2f00baff3700ba
:100ce0000d68a300030032000800be008c80700075
:100cf000b5ff37000768a30007003a000648a300c5
:100d000003003200f1ff2700f0ff2f00aeff370095
:100d10000d48a300030032006000b8008c80700012
:100d2000a9ff37000748a3000400320001f827009c
:100d3000000020008c807000a3ff370076010700c0
:100d40000004fd008104fd00020578007201070027
:100d50000802be008a01780059ff37000160a00038
:100d600012022000f240880097ff37000100e000e7
:100d7000120032000500e00010003200889fbe0023
:100d80008a9fbe008c9fbe000006eb0001f8a30006
:100d90000300320060001000e08018000cf0a0009a
:100da00005f8a3000300320060021200e0821a007e
:100db0000cf0a2008005eb0041ff37006000b80096
:100dc0000200050003836800070028000703630092
:100dd000470ade000480a100c71ade000580a100da
:100de000f70f20000720e100420032000728e10051
:100df00040003200889fbe008a9fbe008c1f780092
:100e0000f107b200f307b2000400e0006400320012
:100e10000170a0000500e000680032000370a0002f
:100e200085054200eb07b1000204b8000302b800d8
:100e30008484440060854a00020ab8008484440027
:100e40000a854a00030ab80004054500040033007f
:100e50000804d0008984d2000a85d2008b05e900fd
:100e60006158e1003d0035000210200009016100d9
:100e70000308200089816100f70720008783640050
:100e800008867300c84cde00c853dd0087847400f8
:100e90004855de000300e0000600320082037600c1
:100ea000040032008904e80060054d000a88a300b0
:100eb0000c003a00f70f20000758e10044003d0005
:100ec0000a70a100c75ddd000a8575008a00730005
:100ed000090078004f0678004f05be004f04be00a1
:100ee000000006000a05d1008984d3008b05e800c4
:100ef000f0ff3700881f7800060478009000070094
:100f0000070278000001fd008101fd008c00070050
:100f100087027800850372000778a300050032007d
:100f20000001fd008101fd009f0007004f047800d3
:100f300000000600850372000748a300030032008a
:100f4000f0ff2f00f1ff2700f8ff3700000020001e
:100f500001f8270088807000f4ff370088017800ce
:100f60004848dd00808171004848de00c850dd003f
:100f700001007000c850de00060478000b01780004
:100f80001600070088807000d2ff37000500e000df
:100f900005003200170020003a0007009dff3700cf
:100fa00081037000f9ff3a00860078004f06780050
:100fb0004f05be004f04be00000005008303710012
:100fc000f9ff3200270020002e00070094ff3700b1
:100fd00001f8270086807000f4ff37000100e00070
:100fe00026003200610111007810e10023003c006e
:100ff0006022b8007010e100040035008002780023
:10100000010078008000eb00700151000200e00058
:101010000900340070031100062add00822ade0078
:101020008603dd00878272000200de00860bdd0091
:10103000070070008208de0084817100f4ff270041
:1010400004826200848171000400280084826200ae
:101050006102600005f0a600000006000482710035
:10106000070032000000e800e080480000000600b1
:101070000002be006000b800efff37006000b8005b
:1010800000000600889fbe000004eb006138e1000c
:1010900016003a000100e00008003a00c800de0037
:1010a0004800dd00880020000100e00003003a0055
:1010b000c800de004800dd00680444008184cf00e1
:1010c000e9845400060034008908dd00f083140030
:1010d0008703de00878070000900dd0009044400fa
:1010e000610214004f04be00000006000300e0008f
:1010f00008003a00c811de004811dd008800200019
:101100000300e00003003a00c811de004811dd00d2
:10111000680444008384cf00e9845400060034004e
:101120008919dd00f08314008713de0087817100c8
:101130000911dd0009044400e1021400e9ff370051
:101140002700200001f0a70017002000470bde0059
:10115000f60fb200040032000643e8000a00320035
:101160004702b3000000060001037800f607b20052
:101170000603700002003a000703b30000000600f7
:101180008702b3000000060001037800f607b200f2
:1011900006037000020032000770a0000000060085
:1011a0000760a000000006000478a30004003200dd
:1011b0000578a300030032000168a30001003a0093
:1011c0000200be000160a000000006008101700066
:1011d000270032008002eb0001f8a3000300320078
:1011e00060001000e080180015002000f4072000c7
:1011f0000202420020003400f70320008703600051
:1012000006042000000363000208200000016100c2
:101210004700de00c909dd0000807100c708de005c
:101220000600e0000800320087037100060032006b
:101230001000b0000180b0000188a300020032005d
:10124000c108de000402e800f107b200f30f20003d
:101250000320e10003003d004722dd008100720011
:101260002900370001f827000000eb0026003700b6
:101270006000b80000000600680212007f20e10054
:10128000020034006000b8001f0037006011b80091
:101290007020e10004003500800178000100780032
:1012a0008000eb00700252000400e00009003400ee
:1012b000f00312000719dd008419de000703dd00ca
:1012c000868171000400de00070bdd00060070005f
:1012d0008408de00f7ff2700838363008703710023
:1012e0000600280003036300070032000700e00047
:1012f00003003a00610160000281730002003200c5
:101300001000b0000180b0000500a600000006003b
:1013100001f0a000000006004f0ade004709de00d1
:10132000f107b200f20fb2000b003200f207b10079
:101330000170a000c708dd00c901de0083807000d5
:101340004700dd000400a600000006006000100059
:10135000e080180000000600810f700001003a00d4
:10136000000006008182cf000500e00010003e0072
:101370008082cf00ee8242007028e1000400390034
:1013800007003e00800078000000eb000e003700f0
:10139000708312008600de000500dd000a003700c1
:1013a000708352008600dd000000eb00060037006d
:1013b000e28252008508dd00708312000603de0021
:1013c000868070000500dd007507b0000501ea00a9
:1013d0000400a6000000060060001000e080180075
:1013e00000000600889fbe008a9fbe00841f780010
:1013f0007c0007004f00780011003300f0ff2f0041
:10140000838f6c0006003b00040565000a00a700fe
:101410000800370009f0a60010002000080037007f
:10142000820f5400838f5c000300390010002000fd
:1014300001003e000000200009f0a7000000ea00c3
:101440004f05be004f04be000000e0000000060093
:10145000881f7800030478000300e00007003d00c7
:1014600060001000e080180060011900e0811900a0
:1014700002003b0001f02d000300370004000700cc
:1014800008f0a70001f0a0004f047800000006005b
:10149000889fbe008a9fbe00008270000402710017
:1014a00004827100260032000004be000200be006b
:1014b0006011b8006b092000950220000182cf0066
:1014c0000a0039000541b1000082cf000700390051
:1014d0000541b1000982cf00040039000541b10087
:1014e0000882cf00010039000541b10005425200d9
:1014f000120032000a003b00828171006101640029
:101500008100d1000080d3008984d3000884d300f7
:101510008b05e8000442e800f7ff3a0007003700b7
:101520000804440089844c00000048008180480081
:101530008b05e9000442e900f9ff3a0003000700c7
:101540004f05be004f04be000000060081002000d1
:10155000618055000b003d000b00200061fe2f0054
:101560000100e1001d00340082817100610164000e
:101570008904d1000884d3000000e800faff3a0093
:101580007100200061006400030070000200600030
:101590000900320061044400e0844c000988a50081
:1015a000050032008b05e8006808e10002003a00ff
:1015b0008904d1000884d300f20f20000258e10012
:1015c00005003d00c75ddd00f907b20089807500a8
:1015d00008007800000006000bf827008b00780058
:1015e000000005000004be0014fc07000003be005c
:1015f0000405be000200be0010fc0700844f750009
:1016000000000600889fbe008a9fbe00800478000c
:101610000200e0005a00320001407800814c78005e
:1016200082814400f1f99f00e20f5100540036001e
:1016300091449800a1449800e1f99f00d1f99f00de
:10164000e60f51004e003600b1449800c1f99f00ea
:10165000e80f51004a0036000905ea0063056500fd
:101660000a8444000a055100c1ff2f0001056500ee
:101670000080fb008000eb001210200013102000ff
:1016800043000700008cbe000a01440060b99f00bf
:1016900071b99f00e80f550039003600200498000a
:1016a00031049800400498005104980020b99f002c
:1016b00031b99f0040b99f0051b99f00f80f550004
:1016c0002f0036006004980071049800000c980008
:1016d000110c9800200c9800310c9800400c9800d8
:1016e000510c980020b19f0031b19f0040b19f0084
:1016f00051b19f0060b19f0071b19f0000b99f0080
:1017000011b99f00640164007801410002044400a3
:10171000020555006011b8000203be000002be00c1
:101720000403be006022b8000000720081807200d5
:1017300002017300838173000f00370008027800f4
:10174000009abe00029abe00009abe000292be003d
:10175000000c9800110c9800220c9800330c980093
:10176000400c9800510c9800620c9800730c980083
:101770000a02b1000802b000ff0f5500efff3e0063
:10178000090078004f05be004f04be0000000600af
:10179000020ab900001bb9000200b8008100420033
:0817a000810043000000060077
:020000040000fa
:1017a800577200006974000065200000535400005f
:1017b80041520000542e00000054000068650000eb
:1017c800206300006172000020690000732000009f
:1017d800737400006172000074650000642e0000dc
:1017e8000054000068650000726500002069000070
:1017f80073200000616e0000206f0000627300001b
:1018080074610000636c00006520000061680000de
:101818006561000064200000005400006865000055
:10182800726500002069000073200000616e0000ee
:10183800206f00006273000074610000636c000098
:10184800652000006f6e00002074000068650000cd
:10185800206c0000656600007420000073690000b9
:101868006465000020610000742000006120000011
:101878006469000073740000616e00006365000015
:10188800206f00006620000000200000636d00004b
:101898002e000000546800006572000065200000fa
:1018a80069730000206100006e2000006f62000074
:1018b80073740000616300006c650000206f000015
:1018c8006e20000074680000652000007269000046
:1018d80067680000742000007369000064650000f8
:1018e800206100007420000061200000646900008d
:1018f80073740000616e000063650000206f0000d3
:1019080066200000005400006865000020640000a4
:10191800757400007920000063790000636c000092
:10192800652000007761000073200000696e0000e8
:10193800637200006561000073650000642e00009a
:101948000054000068650000206400007574000001
:101958007920000063790000636c000065200000b6
:101968007761000073200000646500006372000066
:101978006561000073650000642e0000000000002f
:020000040000fa
:101988000400fa00881f7800000f78000e80e80035
:10199800010878004a0307004e0307007e0307008a
:1019a80087030700900307009d030700a6030700ad
:1019b8009b01070014020700ef020700d803070085
:1019c800ab030700b00420008040880080408000fe
:1019d80001030700e0042000904088009040800048
:1019e8001a030700c702a900a902a800cb02a80091
:1019f800620020008000eb0080802000fffe0700ce
:101a08000e68ef0040bd28001f020700d00020002c
:101a18000902070000000000818020009140780042
:101a280030c5b30080cf5000fbff3a009180200002
:101a38009140780040c5b30080cf5000f6ff3a00cf
:101a4800a18020009140780010c4b30080cf5000de
:101a5800f1ff3a00b18020009140780020c5b30022
:101a680080cf5000ecff3a00c18020009140780000
:101a780040c5b30080cf5000e7ff3a000dc8bf0053
:101a88000004e000e4ff3a0010be2800fe01070051
:101a9800d0002000e8010700501680004800de0052
:101aa8006140600000c0ea00614060000080fb0007
:101ab800610060004800dd00511680000180a1002f
:101ac800010070005016880079030700b500070070
:101ad80001408000802a2000808f5000410036009d
:101ae80050bf2800e8010700d0002000d2010700fd
:101af80068030700c012200094000700b000070028
:101b0800a0408000b140800018c0b300020020004f
:101b1800031a240084fa07000000e00001003c00da
:101b28000044eb000804e000070032006e030700e1
:101b3800405120008500070056030700c01220000e
:101b4800820007007f00370010c12800ce0107007f
:101b5800a0408000b14080001a02070090c428000d
:101b6800c9010700d0002000b3010700c500070025
:101b7800c0408000d140800018c0b300020020009f
:101b8800831a240068fa07000000e00001003c0006
:101b98000044eb000804e000070032005903070086
:101ba80040512000690007003a030700c0122000d6
:101bb8006600070063003700e0c42800b201070090
:101bc800c0408000d1408000fe01070090c428007a
:101bd800ad010700d0002000970107002d03070082
:101be800ffff3700760007001f00370010c12800ec
:101bf800a5010700a0408000b1408000f101070066
:101c080090c42800a0010700d00020008a01070026
:101c180020030700c01220004c000700390307000a
:101c2800000520004900070065000700a04080006b
:101c3800b140800018c0b30002002000031a24003d
:101c480039fa07000000e00001003d000044eb0005
:101c58000804e000040032000e030700c012200050
:101c68003a00070012030700a0408000b14080003e
:101c780018c0b30002002000031a240028fa070045
:101c88000000e000010035000044eb000804e0001b
:101c9800d6ff3a007b0007001f003700e0c4280089
:101ca80079010700c0408000d1408000c5010700cd
:101cb80090c4280074010700d00020005e010700ce
:101cc800f4020700c01220002000070006030700e6
:101cd800000520001d0007006a000700c0408000c2
:101ce800d140800018c0b30002002000831a2400ed
:101cf8000dfa07000000e00001003d000044eb0081
:101d08000804e00004003200e2020700c0122000cc
:101d18000e000700e6020700c0408000d1408000a6
:101d280018c0b30002002000831a2400fcf9070041
:101d38000000e000010035000044eb000804e0006a
:101d4800d6ff3a008000070053ff37000200fa0070
:101d5800000f78000428ef0005e1a800000000004b
:101d6800204080009e0f5000fdff350005e1a900ce
:101d78000080fa00000006000200fa00000f780058
:101d88000228ef0011e1a8000000000010408000c8
:101d98009e0f5000fdff350011e1a9000080fa00f8
:101da800000006000000fa00a1e2a800a000200040
:101db800e6ff0700a1e2a9000080fa000000060083
:101dc8000200fa00d642a80030002000eaff07000f
:101dd800d642a90030002000e7ff070000000000fd
:101de800a116800000102000008060000000e000c4
:101df800fbff32001421ef0086a0a9001fe1a80014
:101e080000000000a1168000001020000080600083
:101e18000000e000fbff3a001fe1a9001cc8bf005a
:101e2800e14f500004003a00801a2600000f7800a5
:101e38001c68ef0002003700a1088000010f78003d
:101e48001421ef001e0078008000eb00f7f907006e
:101e5800d2cc2c00c3dc2300d8fb070002002000f2
:101e680003002400f6fa070082e22700c3d023000b
:101e7800d2fb0700a0408800b14088000080fa002b
:101e8800000006000200fa00d662a8003000200018
:101e9800b9ff0700d662a90030002000b6ff07008e
:101ea80000000000a11680000020200000806000d3
:101eb8000000e000fbff32001821ef0086c0a900f7
:101ec80021e1a80000000000a116800000202000e9
:101ed800008060000000e000fbff3a0021e1a9005b
:101ee8001dc8bf00e14f500004003a00801a2600c8
:101ef800000f78001d68ef0002003700c10880005d
:101f0800010f78001821ef001e0078008000eb0018
:101f1800c6f90700d2cc2c00c3dc2300a7fb0700be
:101f28000200200003002400c5fa070082e227000f
:101f3800c3d02300a1fb0700c0408800d14088001f
:101f48000080fa00000006000000fa00618020000e
:101f580091407800b0c2b30080cf500016003a001c
:101f680081408000f0052000808f500005003c0073
:101f780080408000650040008040880080408000ec
:101f88009501070091408000f0052000808f5000e7
:101f980005003c00904080006500400090408800ab
:101fa80090408000a90107000668ef0070c828006b
:101fb8003c0007001800370061802000914078003d
:101fc800d0c2b30080cf500013003a008040800098
:101fd800e40f500005003400804080006500500088
:101fe80080408800804080007b010700904080008e
:101ff800e40f500005003400904080006500500058
:102008009040880090408000900107000668ef002b
:1020180050ca2800230007000080fa0000000600cc
:102028000000fa0000042000a01088000d42a8005b
:102038008d20a80071108000c0ff2f000080600074
:10204800701088000de2a8000f42a8000080fa0076
:10205800000006000200fa00000f780000000000ef
:102068007110800000102000008060000000e00077
:10207800fbff32006010800066006000e60f500031
:1020880003003a009e0078008110880003003700a2
:10209800f00f20001e006000801088000080fa0009
:1020a800000006000000fa00881f7800000478008d
:1020b8000e003700184078000000fb00e5ff07001d
:1020c80018407800ea4f500002003a00d000200083
:1020d800e0ff070018407800ed4f500002003a007a
:1020e800a0002000dbff07000804e8001840780083
:1020f8000004e000efff3a004f0478000080fa0087
:10210800000006000400fa008e80e80080087800cd
:102118000e80e80010007800c300de00500c22009a
:102128000008b8004408de00004f78001e80fb005d
:102138000003b000c7ff07009e80fb0080c12f008e
:102148000088b900000078008e80e80091007800cf
:10215800808040000e80e800010878000e80e800ca
:1021680010007800c200de00b04721000008b80067
:102178000100d100004f78001e80fb000003b00072
:10218800b4ff07009e80fb00c0f92f000088b9004b
:10219800000078008e80e800910078008080400080
:1021a8000e80e800010878000e80e80090007800b2
:1021b800d0cc2c000008b8004308de00004f78009f
:1021c8001e80fb000003b000a2ff07009e80fb00fa
:1021d80060ff2f000088b900000078008e80e800ba
:1021e80091007800808040000e80e80001087800a7
:1021f8000e80e800100078000003b00095ff07008b
:102208000080fa00000006000000fa000004200028
:10221800f01088008f00a800c1108000c0ff2f00b8
:1022280000806000c010880017e2a8001942a800ca
:102238000080fa00000006000200fa00000f780093
:1022480000000000c1108000001020000080600025
:102258000000e000fbff3200b01080006600600064
:10226800e60f500003003a009e007800d110880065
:1022780003003700f00f20001e006000d010880017
:102288000080fa00000006000000fa00881f7800ad
:102298000004780004003700184078000000fb00b4
:1022a8000804e800e4ff0700184078000004e00094
:1022b800f9ff3a004f0478000080fa000000060099
:1022c8000400fa008e80e800800878000e80e8009c
:1022d80010007800c300de00500c22000008b8008f
:1022e8004408de00004f78001e80fb000003b000a9
:1022f800d1ff07009e80fb0080c12f000088b90035
:10230800000078008e80e80091007800808040000e
:102318000e80e800010878000e80e80010007800c0
:10232800c200de00b04721000008b8000100d1005b
:10233800004f78001e80fb000003b000beff0700be
:102348009e80fb00c0f92f000088b90000007800cb
:102358008e80e80091007800808040000e80e800c0
:10236800010878000e80e80090007800d0cc2c009e
:102378000008b8004308de00004f78001e80fb000c
:102388000003b000acff07009e80fb0060ff2f0039
:102398000088b900000078008e80e800910078007d
:1023a800808040000e80e800010878000e80e80078
:1023b800100078000003b0009fff07000080fa00bb
:1023c800000006000600fa000e81e8000089be0041
:1023d8000e80e80002002000031224001000be0056
:1023e80076fa07000e81e8000089be000e80e8003a
:1023f80002002400c36124001000be0090f9070009
:102408006cf80700004f78001e80fb000003b00046
:1024180089ff07009e80fb00007122000088b90038
:1024280000007800cf80de007df807000e82e8000b
:102438000001be001400be0093f807000e81e800fa
:102448000089be000e80e80002002000a347240097
:102458001000be007af9070056f80700004f780010
:102468001e80fb000003b00073ff07009e80fb0086
:10247800803e20000088b90000007800cf80de0090
:1024880067f807000e82e8000001be001400be00d5
:102498007df807000e81e8000089be000e80e80084
:1024a80002002000832c24001000be0064f90700fd
:1024b80040f80700004f78001e80fb000003b000c2
:1024c8005dff07009e80fb00400620000088b900e1
:1024d80000007800cf80de0051f807000e82e80087
:1024e8000001be001400be0067f807000e81e80076
:1024f8000089be000e80e8000200200003122400bc
:102508001000be004ef907002af80700004f7800b7
:102518001e80fb000003b00047ff0700e002200018
:1025280045ff07001e80fb006a00b9000000780024
:10253800cf80de003af807000e82e8000001be00f6
:102548001400be0050f807000e81e8000089be00a4
:102558000e80e80002002000032424001000be00c2
:1025680052f8070013f807000000780032ff070050
:102578000080fa00000006000000fa00d202a9005c
:10258800d222a900210c800080ff2f00008060006b
:102598006000b300200c8800510c800080ff2f00e1
:1025a800008060006000b300500c88008461a800bf
:1025b8008a61a8008221ef008821ef00a00f200087
:1025c800000c8800a00f2000300c880013e1a80040
:1025d8000080fa00000006000600fa00e400470048
:1025e8008008780064004700100078000000e000d0
:1025f8001400350064004700900078004006200071
:10260800808f50000f003c006400470010007800e5
:10261800cf80de0002f8070002002800933f240064
:10262800e6f9070002002000832c240004f90700c3
:10263800008fbe001e00be00bdf707000000780036
:10264800000c88000080fa00000006000600fa006e
:10265800e400470080087800640047001000780014
:102668000000e00014003500640047009000780086
:1026780040062000808f50000f003c006400470097
:1026880010007800cf80de00e5f707000200280080
:10269800933f2400c9f9070002002000832c24007e
:1026a800e7f80700008fbe001e00be00a0f7070075
:1026b80000007800300c88000080fa000000060056
:1026c8000000fa00a822a900c622a8000080fa008b
:1026d800000006000000fa00a1a2a9000115800070
:1026e800f0cf2f00008060000015880001158000e1
:1026f800000e20000100700000158800a022a8002c
:102708001115800000002e000100700010158800cf
:10271800a342a8001115800030fc2f000080600043
:1027280010158800a222a900a202a9002115800084
:1027380000f021000100700020158800a4e2a80024
:102748002115800000fc2f0000806000f001b3001c
:1027580020158800a782a900a682a900311580004b
:1027680000ff2f00008060003015880031158000c0
:10277800f00f2f0000806000301588002000200036
:1027880050158800a042a8008560a8008d60a800a8
:102798000080fa00000006000000fa000021ef00a7
:1027a80000712200100888000421a9008460a90093
:1027b8008c60a80005e1a9000080fa00000006006e
:1027c8000000fa000621ef00a00020006008880041
:1027d8001021a90084c0a9008cc0a80011e1a9009b
:1027e8000080fa00000006000000fa000a21ef004d
:1027f800401f2000700888001221a900910880005d
:10280800f0fc2f00008060009008880084e0a90098
:102818008ce0a80013e1a9000080fa00000006007f
:102828000000fa001421ef00801a2600d008880062
:102838001e21a90086a0a9008ea0a8001fe1a9005a
:102848000080fa00000006000000fa001821ef00de
:10285800801a2600e00888002021a90086c0a90067
:102868008ec0a80021e1a9000080fa00000006003f
:102878000000fa00c742a900c762a900de02a90049
:10288800de22a900a962a800a982a8000080fa0097
:10289800000006000000fa00cb42a900cb62a900a4
:1028a800e222a900e202a9000080fa000000060066
:1028b8000000fa00cb42a800cb62a900e222a900de
:1028c800e202a8000080fa00000006000000fa00fa
:1028d800cb42a900cb62a800e222a800e202a9002c
:1028e8000080fa00000006000000fa00cb42a800b1
:1028f800cb62a900e222a800e202a9000080fa0047
:10290800000006000000fa00cb42a900cb62a80034
:10291800e222a900e202a8000080fa0000000600f6
:102928000000fa00d242a900d262a900d302a8008e
:10293800d322a800d642a900d662a9000080fa00d6
:042948000000060085
:020000040000fa
:10294c00000800001e000000000000001e0800002f
:0c295c000200000000000000000000006d
:020000040000fa
:0200000401f009
:040000000587000070
:020000040000fa
:0200000401f009
:040004003f000000b9
:00000001FF
